:100000000C945C000C946E000C946E000C946E00CA
:100010000C946E000C946E000C946E000C946E00A8
:100020000C946E000C946E000C946E000C946E0098
:100030000C946E000C946E000C946E000C946E0088
:100040000C9444010C946E000C946E000C946E00A1
:100050000C946E000C946E000C946E000C946E0068
:100060000C946E000C946E00000000002400270029
:100070002A0000000000250028002B0004040404CE
:100080000404040402020202020203030303030342
:10009000010204081020408001020408102001021F
:1000A00004081020000000080002010000030407FB
:1000B000000000000000000011241FBECFEFD8E0B8
:1000C000DEBFCDBF21E0A0E0B1E001C01D92A931AB
:1000D000B207E1F70E948E010C948F020C9400008D
:1000E00090E0FC01EC55FF4F2491FC01E057FF4FDD
:1000F0003491FC01E458FF4FE491EE23C9F0222330
:1001000039F0233001F1A8F4213019F1223029F11E
:10011000F0E0EE0FFF1FEE58FF4FA591B4918FB79F
:10012000F894EC91611126C030953E233C938FBF2B
:1001300008952730A9F02830C9F0243049F780917C
:1001400080008F7D03C0809180008F778093800036
:10015000DFCF84B58F7784BDDBCF84B58F7DFBCFB8
:100160008091B0008F778093B000D2CF8091B000A3
:100170008F7DF9CF3E2BDACFCF93DF9390E0FC0158
:10018000E057FF4F249184589F4FFC0184918823AE
:10019000D1F090E0880F991FFC01E859FF4FA5911D
:1001A000B491FC01EE58FF4FC591D49161110EC07E
:1001B0009FB7F8948C91E22FE0958E238C93288141
:1001C000E223E8839FBFDF91CF9108958FB7F89422
:1001D000EC91E22BEC938FBFF6CF3FB7F894809170
:1001E000150190911601A0911701B091180126B543
:1001F000A89B05C02F3F19F00196A11DB11D3FBF5F
:10020000BA2FA92F982F8827BC01CD01620F711D2D
:10021000811D911D42E0660F771F881F991F4A9527
:10022000D1F708958F929F92AF92BF92CF92DF92B3
:10023000EF92FF924B015C010E94ED006B017C018B
:100240000E94ED006C197D098E099F09683E73407C
:1002500081059105A8F321E0821A9108A108B1084F
:1002600088EEC80E83E0D81EE11CF11C81149104B5
:10027000A104B10429F7FF90EF90DF90CF90BF90D9
:10028000AF909F908F9008951F920F920FB60F928C
:1002900011242F933F938F939F93AF93BF9380919C
:1002A000110190911201A0911301B09114013091AC
:1002B000100123E0230F2D3758F50196A11DB11D24
:1002C000209310018093110190931201A0931301C8
:1002D000B09314018091150190911601A09117011E
:1002E000B09118010196A11DB11D80931501909345
:1002F0001601A0931701B0931801BF91AF919F9180
:100300008F913F912F910F900FBE0F901F901895D6
:1003100026E8230F0296A11DB11DD2CF789484B593
:10032000826084BD84B5816084BD85B5826085BDF1
:1003300085B5816085BD80916E00816080936E007F
:100340001092810080918100826080938100809171
:100350008100816080938100809180008160809322
:1003600080008091B10084608093B1008091B000E2
:1003700081608093B00080917A00846080937A00DD
:1003800080917A00826080937A0080917A00816007
:1003900080937A0080917A00806880937A0010922E
:1003A000C10061E082E00E94BC0061E083E00E9445
:1003B000BC0061E084E00E94BC0061E085E00E9436
:1003C000BC0060E086E00E94BC0060E087E00E9424
:1003D000BC0060E088E00E94BC0060E089E00E9410
:1003E000BC0061E08DE00E94BC0080E0E82E80E06F
:1003F000F82E61E08DE00E94700068EE73E080E00E
:1004000090E00E941201C0910601D09107016C2F6B
:1004100082E00E947000A0900401B09005016A2D56
:1004200083E00E947000C0900201D09003016C2D07
:1004300084E00E9470000091000110910101602F82
:1004400085E00E94700061E070E0209711F070E09C
:1004500060E070930F0160930E01209769F5A1147D
:10046000B10421F441E0C114D10421F441E00115AB
:10047000110531F150E050930D0140930C0120978C
:1004800021F421E00115110539F4A114B104D1F0D2
:1004900021E0C114D104C1F030E030930B0120936E
:1004A0000A01CD2B99F4AB2829F4CD2819F481E069
:1004B000012B79F080E00DC041E0A114B104D1F628
:1004C00040E0D8CF209721F720E0E6CF81E0012B54
:1004D00089F390E0909309018093080170930701DC
:1004E000609306015093050140930401309303018A
:1004F00020930201909301018093000160E08DE060
:100500000E94700064E670E080E090E00E941201BA
:10051000E114F10409F46DCF0E9400006ACFF89451
:02052000FFCF0B
:00000001FF
