:100000000C945C000C9479000C9479000C947900A9
:100010000C9479000C9479000C9479000C9479007C
:100020000C9479000C9479000C9479000C9479006C
:100030000C9479000C9479000C9479000C9479005C
:100040000C940B010C9479000C9479000C947900B9
:100050000C9479000C9479000C9479000C9479003C
:100060000C9479000C947900000000080002010053
:100070000003040700000000000000000000000072
:10008000250028002B0000000000240027002A0083
:10009000040404040404040402020202020203032E
:1000A0000303030301020408102040800102040836
:1000B000102001020408102011241FBECFEFD8E049
:1000C000DEBFCDBF11E0A0E0B1E0ECE4F4E002C09F
:1000D00005900D92A830B107D9F721E0A8E0B1E072
:1000E00001C01D92A131B207E1F70E9455010C94A5
:1000F00024020C94000090E0FC01EC55FF4F249189
:1001000080579F4FFC018491882399F090E0880FDD
:10011000991FFC01EA57FF4FA591B491FC01E458E7
:10012000FF4F859194918FB7F894EC91E22BEC936B
:100130008FBF089590E0FC01E859FF4F2491FC0126
:10014000EC55FF4F3491FC01E057FF4FE491EE2353
:10015000C9F0222339F0233001F1A8F4213019F13C
:10016000223029F1F0E0EE0FFF1FE458FF4FA59178
:10017000B4918FB7F894EC91611126C030953E236D
:100180003C938FBF08952730A9F02830C9F0243060
:1001900049F7809180008F7D03C0809180008F7728
:1001A00080938000DFCF84B58F7784BDDBCF84B5AB
:1001B0008F7DFBCF8091B0008F778093B000D2CF3E
:1001C0008091B0008F7DF9CF3E2BDACF3FB7F89406
:1001D00080910D0190910E01A0910F01B09110013D
:1001E00026B5A89B05C02F3F19F00196A11DB11D92
:1001F0003FBFBA2FA92F982F8827BC01CD01620FCE
:10020000711D811D911D42E0660F771F881F991F88
:100210004A95D1F708951F920F920FB60F921124AD
:100220002F933F938F939F93AF93BF938091090137
:1002300090910A01A0910B01B0910C01309108013D
:1002400023E0230F2D3758F50196A11DB11D2093F2
:1002500008018093090190930A01A0930B01B093C8
:100260000C0180910D0190910E01A0910F01B091B0
:1002700010010196A11DB11D80930D0190930E01F7
:10028000A0930F01B0931001BF91AF919F918F91F7
:100290003F912F910F900FBE0F901F90189526E859
:1002A000230F0296A11DB11DD2CF789484B5826030
:1002B00084BD84B5816084BD85B5826085BD85B50A
:1002C000816085BD80916E00816080936E00109288
:1002D0008100809181008260809381008091810003
:1002E0008160809381008091800081608093800094
:1002F0008091B10084608093B1008091B0008160F2
:100300008093B00080917A00846080937A0080911D
:100310007A00826080937A0080917A008160809375
:100320007A0080917A00806880937A001092C100F0
:1003300089E00E947B008AE00E947B008BE00E94A3
:100340007B008CE00E947B0082E00E947B0083E0C7
:100350000E947B0084E00E947B0085E00E947B007D
:1003600000E010E0D0E0C0E060E0C62E61E0D62EF4
:10037000F12CE12CF6018081F2E0CF0ED11CBE0100
:100380000E2C02C0759567950A94E2F761700E9481
:100390009A002FEFE21AF20A84E0E816F10451F70E
:1003A000CE0123E0959587952A95E1F7BE017595D5
:1003B00067957595679568239E0135952795CE01BC
:1003C000817099278223682B82E00E949A0060E066
:1003D00083E00E949A0060E084E00E949A0060E05E
:1003E00085E00E949A000E94E6006B017C0158EEB5
:1003F000852E53E0952EA12CB12C0E94E6006C199D
:100400007D098E099F09683E734081059105A8F317
:1004100091E0891A9108A108B108E8EECE0EE3E058
:10042000DE1EE11CF11C81149104A104B10429F722
:100430002196C031D10509F097CF0115110509F4B6
:0C04400091CF0E9400008ECFF894FFCFF7
:08044C0009000A000B000C007E
:00000001FF
